{
  "contractName": "Messenger",
  "abi": [
    {
      "inputs": [],
      "payable": false,
      "stateMutability": "nonpayable",
      "type": "constructor"
    },
    {
      "constant": false,
      "inputs": [
        {
          "internalType": "string",
          "name": "newMessage",
          "type": "string"
        }
      ],
      "name": "add",
      "outputs": [],
      "payable": false,
      "stateMutability": "nonpayable",
      "type": "function"
    },
    {
      "constant": true,
      "inputs": [],
      "name": "count",
      "outputs": [
        {
          "internalType": "uint256",
          "name": "",
          "type": "uint256"
        }
      ],
      "payable": false,
      "stateMutability": "view",
      "type": "function"
    },
    {
      "constant": true,
      "inputs": [
        {
          "internalType": "uint256",
          "name": "index",
          "type": "uint256"
        }
      ],
      "name": "get",
      "outputs": [
        {
          "internalType": "string",
          "name": "",
          "type": "string"
        }
      ],
      "payable": false,
      "stateMutability": "view",
      "type": "function"
    }
  ],
  "bytecode": "0x608060405234801561001057600080fd5b50336000806101000a81548173ffffffffffffffffffffffffffffffffffffffff021916908373ffffffffffffffffffffffffffffffffffffffff1602179055506103a8806100606000396000f3fe608060405234801561001057600080fd5b50600436106100415760003560e01c806306661abd146100465780639507d39a14610064578063b0c8f9dc1461010b575b600080fd5b61004e6101c6565b6040518082815260200191505060405180910390f35b6100906004803603602081101561007a57600080fd5b81019080803590602001909291905050506101d3565b6040518080602001828103825283818151815260200191508051906020019080838360005b838110156100d05780820151818401526020810190506100b5565b50505050905090810190601f1680156100fd5780820380516001836020036101000a031916815260200191505b509250505060405180910390f35b6101c46004803603602081101561012157600080fd5b810190808035906020019064010000000081111561013e57600080fd5b82018360208201111561015057600080fd5b8035906020019184600183028401116401000000008311171561017257600080fd5b91908080601f016020809104026020016040519081016040528093929190818152602001838380828437600081840152601f19601f82011690508083019250505050505050919291929050505061028c565b005b6000600180549050905090565b6060600182815481106101e257fe5b906000526020600020018054600181600116156101000203166002900480601f0160208091040260200160405190810160405280929190818152602001828054600181600116156101000203166002900480156102805780601f1061025557610100808354040283529160200191610280565b820191906000526020600020905b81548152906001019060200180831161026357829003601f168201915b50505050509050919050565b60018190806001815401808255809150509060018203906000526020600020016000909192909190915090805190602001906102c99291906102ce565b505050565b828054600181600116156101000203166002900490600052602060002090601f016020900481019282601f1061030f57805160ff191683800117855561033d565b8280016001018555821561033d579182015b8281111561033c578251825591602001919060010190610321565b5b50905061034a919061034e565b5090565b61037091905b8082111561036c576000816000905550600101610354565b5090565b9056fea265627a7a7231582013a45e6d3d23c03c34f11658c515f0bd0880a2005b70eeef460329a8ae2ba0a364736f6c63430005100032",
  "source": "// SPDX-License-Identifier: MIT\npragma solidity >=0.4.21 <0.7.0;\n\ncontract Messenger {\n  address owner;\n  string[] messages;\n\n  constructor() public {\n    owner = msg.sender;\n  }\n\n  function add(string memory newMessage) public {\n    // require(msg.sender == owner);\n    messages.push(newMessage);\n  }\n\n  function count() view public returns(uint) {\n    return messages.length;\n  }\n\n  function get(uint index) view public returns(string memory) {\n    return messages[index];\n  }\n}\n",
  "sourcePath": "/mnt/10C2C7DCC2C7C3E6/Projects/Blockchain/Web3/contracts/Messenger.sol",
  "compiler": {
    "name": "solc",
    "version": "0.5.16+commit.9c3226ce.Emscripten.clang"
  },
  "schemaVersion": "3.3.3",
  "updatedAt": "2021-01-14T21:44:17.219Z",
  "networkType": "ethereum",
  "devdoc": {
    "methods": {}
  },
  "userdoc": {
    "methods": {}
  }
}