{
  "contractName": "SimpleStorage",
  "abi": [
    {
      "constant": true,
      "inputs": [],
      "name": "iden",
      "outputs": [
        {
          "internalType": "string",
          "name": "",
          "type": "string"
        }
      ],
      "payable": false,
      "stateMutability": "view",
      "type": "function"
    },
    {
      "constant": false,
      "inputs": [],
      "name": "sendether",
      "outputs": [],
      "payable": true,
      "stateMutability": "payable",
      "type": "function"
    },
    {
      "constant": false,
      "inputs": [],
      "name": "withdraw",
      "outputs": [],
      "payable": false,
      "stateMutability": "nonpayable",
      "type": "function"
    }
  ],
  "bytecode": "0x608060405234801561001057600080fd5b5061031c806100206000396000f3fe6080604052600436106100345760003560e01c80633ccfd60b1461003957806353d4a1bb146100505780639e791d8b146100e0575b600080fd5b34801561004557600080fd5b5061004e6100ea565b005b34801561005c57600080fd5b50610065610156565b6040518080602001828103825283818151815260200191508051906020019080838360005b838110156100a557808201518184015260208101905061008a565b50505050905090810190601f1680156100d25780820380516001836020036101000a031916815260200191505b509250505060405180910390f35b6100e86101f4565b005b600030905060008173ffffffffffffffffffffffffffffffffffffffff163190503373ffffffffffffffffffffffffffffffffffffffff166108fc829081150290604051600060405180830381858888f19350505050158015610151573d6000803e3d6000fd5b505050565b60008054600181600116156101000203166002900480601f0160208091040260200160405190810160405280929190818152602001828054600181600116156101000203166002900480156101ec5780601f106101c1576101008083540402835291602001916101ec565b820191906000526020600020905b8154815290600101906020018083116101cf57829003601f168201915b505050505081565b6040518060400160405280601481526020017f53656e64656874657220676f742063616c6c65640000000000000000000000008152506000908051906020019061023f929190610242565b50565b828054600181600116156101000203166002900490600052602060002090601f016020900481019282601f1061028357805160ff19168380011785556102b1565b828001600101855582156102b1579182015b828111156102b0578251825591602001919060010190610295565b5b5090506102be91906102c2565b5090565b6102e491905b808211156102e05760008160009055506001016102c8565b5090565b9056fea265627a7a7231582085b4e36afb9ec6ae77aa1adfe98d797604dfb9da688c1843d0a034b11753c03364736f6c63430005100032",
  "source": "// SPDX-License-Identifier: MIT\npragma solidity >=0.4.21 <0.7.0;\n\ncontract SimpleStorage {\n  string public iden;\n\n  function sendether() public payable {\n    iden = \"Sendehter got called\";\n  }\n  \n  // receive() external public {\n  //   iden = \"fallback got called\";\n  // }\n\n  function withdraw() public {\n    address my = address(this);\n    uint256 bal = my.balance;\n    (msg.sender).transfer(bal);\n  }\n}\n",
  "sourcePath": "/mnt/10C2C7DCC2C7C3E6/Projects/Blockchain/Web3/contracts/SimpleStorage.sol",
  "compiler": {
    "name": "solc",
    "version": "0.5.16+commit.9c3226ce.Emscripten.clang"
  },
  "schemaVersion": "3.3.3",
  "updatedAt": "2021-01-14T21:44:17.218Z",
  "networkType": "ethereum",
  "devdoc": {
    "methods": {}
  },
  "userdoc": {
    "methods": {}
  }
}